:020000040800F2
:10000000403F00209D01000895310008212500088F
:10001000812C000861040008C14C000800000000A9
:1000200000000000000000000000000005010008C2
:100030005B0800080000000049010008F5440008C2
:10004000B7010008B7010008B7010008B7010008B0
:10005000B7010008B7010008B7010008B7010008A0
:10006000B7010008B7010008B7010008B701000890
:10007000B7010008B7010008B7010008B701000880
:10008000B7010008B7010008B1020008B701000875
:10009000B7010008B7010008B7010008B701000860
:1000A000B7010008B7010008B7010008B701000850
:1000B0009D450008A9450008B5450008B70100089E
:1000C000B7010008B7010008B7010008B701000830
:1000D000B7010008B7010008B7010008B701000820
:1000E000B7010008B7010008B7010008DFF810D019
:1000F00000F09CF800480047814D0008AFF30080F5
:10010000403F0020224B19680868B0E8F00F80F3E8
:100110000988BFF36F8F4FF0000080F311884EF015
:100120000D0E70470000000006480068006880F36C
:10013000088862B661B6BFF34F8FBFF36F8F00DFE1
:1001400000BF00BF08ED00E0EFF30980BFF36F8F41
:100150000F4B1A6820E9F00F106008B54FF05000FF
:1001600080F31188BFF34F8FBFF36F8F05F038FE18
:100170004FF0000080F31188BDE808401968086856
:10018000B0E8F00F80F30988BFF36F8F704700BFAE
:100190001C000020EFF305807047000006488047F0
:1001A00006480047FEE7FEE7FEE7FEE7FEE7FEE75C
:1001B000FEE7FEE7FEE7FEE799450008ED000008D0
:1001C0000649074A0868504343F239021044086060
:1001D00040087047014908607047000098110020EE
:1001E0006D4EC64140EA01039B0703D009E008C9F0
:1001F000121F08C0042AFAD203E011F8013B00F8EC
:10020000013B521EF9D27047D2B201E000F8012B37
:10021000491EFBD270470022F6E710B513460A4686
:1002200004461946FFF7F0FF204610BD064C074D67
:1002300006E0E06840F0010394E8070098471034B6
:10024000AC42F6D3FFF756FFA8810008C88100082A
:1002500070B58D1810F8014B14F0030201D110F89D
:10026000012B231106D110F8013B03E010F8016BBC
:1002700001F8016B521EF9D1ABB110F8012B04F05B
:100280000C048A1A0C2C03D0A2EB84129B1C08E0ED
:1002900010F8014BA2EB0422F8E712F8014B01F829
:1002A000014B5B1EF9D5A942D4D3002070BD0000DC
:1002B000014800F0D4BE0000D413002070B50446FD
:1002C00000688168C943C90717D1816821F001011D
:1002D000816001F0F1F805460AE000BF01F0ECF89A
:1002E000401B022804D920688068C043C00706D09C
:1002F00020688068C043C007F0D0002070BDA06AAD
:1003000040F01000A062E06A40F00100E0620120CD
:1003100070BD00004A4D86B0286805F00BFD4520F1
:100320008DF8080001208DF80C00464C02F034FFD7
:100330004448401C00F0B2F99DF80C00012804D09C
:10034000022807D0032810D109E010231A461946C5
:10035000202008E010231A461946382003E0102315
:100360001A461946502003F06DF903F05FFA9DF824
:10037000086000F07DFD8DF8080086425BD0002803
:1003800059D0422806D0432809D0402815D041280A
:1003900013D018E02078032806D2401C03E0207810
:1003A000012806D9401E2070C0B2032801D90320BD
:1003B0002070C0B28DF80C0005E0224903AA491C48
:1003C00002A800F098F89DF80800452802D04628B9
:1003D0002BD030E002F0E0FE03F028FA286805F0A8
:1003E00027FC184C2025641CE61C4FF4FA7704A85F
:1003F00003F0BAFC9DF810002178884211D19DF8D5
:100400001110607881420CD19DF81210A0788142C1
:1004100007D1CDE90056002332220BA10F4805F089
:10042000C1FF384605F01AFBE1E7286805F000FC3B
:10043000002005F039FB322005F010FB76E70000C4
:10044000E000002088110020506C6179416C6172DD
:100450006D52696E67746F6E65000000313D000873
:10046000FEE710B512780023012A11D03B24022A9E
:1004700024D0032A0BD10078402834D0412806D15B
:100480008878401E10F0FF00887000D18C7010BD7D
:10049000007840280AD04128F9D10878401E10F091
:1004A000FF000870F3D11720087010BD0878401CB9
:1004B000C0B208701728F8D90B7010BD007840281A
:1004C00009D04128F9D14878401E10F0FF0048704B
:1004D000F3D14C7010BD4878401CC0B248703B2826
:1004E000F8D94B7010BD8878401CC0B288703B288A
:1004F000F8D98B7010BD10B512780023012A11D0E5
:100500003B24022A24D0032A0BD10078402834D07F
:10051000412806D18878401E10F0FF00887000D175
:100520008C7010BD007840280AD04128F9D1087895
:10053000401E10F0FF000870F3D11720087010BDA6
:100540000878401CC0B208701728F8D90B7010BD8D
:100550000078402809D04128F9D14878401E10F091
:10056000FF004870F3D14C7010BD4878401CC0B2F9
:1005700048703B28F8D94B7010BD8878401CC0B239
:1005800088703B28F8D98B7010BD000070B50078DA
:100590000025012813D0022810D10E4C052300227B
:1005A0000B49206805F0C8FA0948007B032801D0F0
:1005B000022803D1206805F077FA256070BD074C4A
:1005C000052300220449206805F0B6FA0248ECE74A
:1005D000F43A0020EC000020D03A0020E80000208F
:1005E000F8B515460E460446082329A210212020FE
:1005F00003F005F9062326A22621282003F0FFF8A0
:10060000062323A23421282003F0F9F808270097B5
:10061000227802231021202003F0CEF80097627880
:1006200002231021382003F0C7F80097A278022394
:100630001021502003F0C0F80624009432780223E1
:100640002621282003F0B8F800947278022326218E
:100650003A2003F0B1F80094B278022326214C200E
:1006600003F0AAF800942A7802233421282003F00A
:10067000A3F800946A78022334213A2003F09CF80E
:100680000094AA78022334214C2003F095F8F8BD99
:1006900020203A20203A20200000000038B50446EF
:1006A000082315A21021202003F0A9F808250095A1
:1006B000227802231021202003F07EF80095627832
:1006C00002231021382003F077F80095A278022346
:1006D0001021502003F070F806230AA226211620CC
:1006E00003F08DF801B00623BDE83040342109A2A3
:1006F000132003F084B8000020203A20203A202064
:1007000000000000413A20456E61626C6520416C3A
:1007100061726D00423A2044697361626C652041E8
:100720006C61726D00000000012000F00DB8000047
:1007300010B54FF40061034800F0B4FE012800D06A
:10074000002010BD00080140044B4FF4006108B1C7
:10075000012200E00022184600F0A9BE0008014076
:100760002DE9F05F82468B460020FFF7EDFF142055
:1007700004F02AFB0122D1021C4800F098FE3C2024
:1007800005F01EF8FFF7D4FF4FF0FF3958BB4FF4C8
:100790007A742146012000F04EF820BB214600204B
:1007A00000F049F8F8B900F023F8C5B200F020F8DD
:1007B00000F0FF0800F01CF8C4B200F019F8C7B24E
:1007C00000F016F8C6B20120FFF7BEFF05EB0800E7
:1007D00020443844B04206D18AF800508BF80040DB
:1007E0000020BDE8F09F4846FBE7000000080140FC
:1007F0002DE9F04100242546671E4FF47A763146F4
:10080000012000F018F870B9282004F0D9FF640026
:10081000FFF78EFF012801D144F00104314600208A
:1008200000F009F810B13846BDE8F0816D1C082DC4
:10083000E5DB2046F8E770B50C46054608E0FFF713
:1008400077FFA84201D1002070BD012004F0B8FF5D
:10085000641EF4D24FF0FF3070BD704738B50446C7
:10086000082322A20021302002F0C9FF20780728A7
:100870003BD2DFE800F03A040C141C242C000623C1
:100880001CA23621312002F0BAFF1C4826E00623C4
:100890001BA23621312002F0B2FF1B481EE00623C6
:1008A0001AA23621312002F0AAFF1A4816E00623C8
:1008B00019A23621312002F0A2FF19480EE00623CA
:1008C00018A23621312002F09AFF184806E00623CC
:1008D00017A23621312002F092FF16481F23009004
:1008E0001A461321322002F00FFF38BD4D656E7598
:1008F0000000000054696D65000000006071000890
:10090000416C61726D000000E47000084D75736900
:1009100063000000DC71000847616D6500000000A5
:100920005872000854696D6572000000D4720008A6
:10093000536574005073000808B502F02DFC06489A
:100940000021009040238022084602F0DDFEBDE831
:10095000084002F06BBF0000B8770008FC4D08B5F6
:10096000286805F0E7F903F019F9FFF7E5FFF94CFE
:100970004526667000F07CFA2070DFF8DCB3DFF803
:10098000DC8300274FF0060AB1461CE0607000F0DF
:100990006FFA2070492802D050280BD010E0286848
:1009A00005F046F9002005F0C5F984F80090FFF73E
:1009B000C3FF05E0286805F03BF9002005F074F856
:1009C000322005F04BF820784528DFD161784529A1
:1009D000DCD0564602F0E0FBE078012806D0207912
:1009E000401CC0B22071062851D054E0DC48009071
:1009F000282327221821002002F086FE0823D9A2EE
:100A00000121002002F0FBFE0623D9A218212D208F
:100A100002F0F5FE00960523228A2021622002F0D2
:100A2000CBFE2D210623D5A2084602F0E8FE009653
:100A30000523E2893521622002F0BEFE02F0F6FEB7
:100A400000F016FA207045280AD1E089218A8842F0
:100A500000D9208203F0A2F802F09EFB02F0E6FE2D
:100A60002078492802D0502809D00EE0286805F0E7
:100A7000DFF8002005F05EF984F8009005E02868B2
:100A800005F0D6F8002005F00FF832209FE1E0894C
:100A9000401CE0812771B4F91C00002804DC207898
:100AA000607000F0E5F92070608AA18A8438814284
:100AB0000BEB010000904FF008034FF080024FF065
:100AC00038014FF0000006DA02F01EFEA08A6179BC
:100AD0000844A08202E002F017FEA782B4F91A00CF
:100AE000217A0144002902DC8020608301E0802813
:100AF00008D1FFF765FBC11700EB117121F00F0161
:100B0000401A6072002108239FA2084602F077FE77
:100B100008239DA21946002002F071FEB4F91A00C4
:100B20009E49002808DA091A0091217A082308440E
:100B3000C2B2617A002004E00091617AC0B2082359
:100B4000227A02F0E1FD618B94F90700081A6083B4
:100B5000B4F91C10002902DC207845284AD16078BD
:100B60002278904246D0207BC0B97A4A94F90B0093
:100B70001E3210231256401E114409B2A183E072A6
:100B8000C1F12C00C1B21A461846CDF8008002F01F
:100B9000BBFD94F90B00002800DCE772207B0128E4
:100BA0001AD16C4994F90B001E31A28B0956401CD6
:100BB000511A09B2A183E072C1F12C001023C1B215
:100BC0001A461846CDF8008002F09EFD94F90B00FD
:100BD000082801DB0820E072B4F91C001F2804DBA0
:100BE000012020731F20A08313E0002811DC27734D
:100BF000A7830EE0A07A401C10F00100A0720CD078
:100C000038B16748102300901A463021184602F088
:100C10007BFDE08A802802D00AE06248F2E7FFF715
:100C2000CFFAC11700EB917121F00301401AA071B6
:100C3000A07930B1012806D0022806D0032804D0BC
:100C400005E0082102E0102100E018212183B4F919
:100C50001610002914DA28B1012805D002280DD079
:100C6000514802E0514800E051481023401A0090DA
:100C7000207E0844C2B2302100200CE04D48F4E749
:100C8000F0B3012853D0022853D047480090C8B28F
:100C9000227E1023302102F037FDE08A6179401A6C
:100CA00000B2E082B4F918100844002801DC80206A
:100CB000E082B4F91C0010280FDAB4F91620A2F172
:100CC00011000F2803D3501812380D2805D2012027
:100CD000E0704FF4FA7004F0C1FE062336A2002142
:100CE000232002F08CFD00960523228A00213A2061
:100CF00002F062FD052300960021E289622000E0F7
:100D000013E002F059FD02F091FDE1891420B1FBDE
:100D1000F0F0C0B2A0701D2801D91D20A07020786D
:100D2000492808D0502849D04EE02048AEE7204856
:100D3000ACE72048AAE702F02FFA02F077FD286816
:100D400004F076FF002004F0F5FF492020703BE01E
:100D5000E00000209C000020CC730008F87600081A
:100D6000B87B000847414D45204F564552210000B1
:100D7000486967682053636F72653A004E6F772049
:100D800053636F72653A000020202020202020202D
:100D90002020202020202020000000004C7500088A
:100DA00088750008687500088877000828770008AB
:100DB000387700085877000848493A00286804F056
:100DC00037FF002004F070FEA078C0F11E0004F090
:100DD00045FEFFE572B6FEE738B504462048052318
:100DE00000221E49006804F0A7FE1F4805230022C8
:100DF0001C49006804F0A0FE18480025007B032869
:100E000001D002280FD118231A4612211F20009565
:100E100002F038FB2078012805D1062313A2012116
:100E20006C2002F0ECFC0F48007B032801D0022864
:100E300012D118231A4612214920009502F022FBF4
:100E40002078022808D101B00623BDE830400121F6
:100E500006A26C2002F0D3BC38BD0000D03A0020BE
:100E6000E8000020F43A0020EC00002072756E00CB
:100E700070B51E4D00241021284600F013FB20B34E
:100E80002021284600F00EFB08B34021284600F040
:100E900009FBF0B18021284600F004FBD8B1A91469
:100EA000134D284600F0FEFAB8B16914284600F048
:100EB000F9FAA0B10121284600F0F4FA88B1022124
:100EC000284600F0EFFA70B10EE040240CE0412417
:100ED0000AE0422408E0432406E0452404E04624D6
:100EE00002E0492400E05024204670BD0008014083
:100EF000000C0140044900200A78002A02D04A78F8
:100F00000870104670470000940000201248C17815
:100F1000491CCAB20021C270642A03D3C17082780E
:100F2000521C827082783C2A03D381704278521C12
:100F3000427042783C2A03D341700278521C0270FE
:100F40000278182A00D101700179012902D1C188E3
:100F5000491CC180704700009011002070470000BC
:100F6000F8B50024009490F824202546012A12D0D8
:100F7000012280F824204A681F23072A0DD2066820
:100F8000776B521E02EB820293409F430B689340A3
:100F90001F43776319E00220F8BD06680D2A0AD2C4
:100FA000376BD21F02EB820293409F430B68934042
:100FB0001F43376309E0F76A0D3A02EB8202934060
:100FC0009F430B6893401F43F7620A680723066834
:100FD0000A2A0AD3F7680A3A02EB420293409F4377
:100FE0008B6893401F43F76008E0376902EB4202C9
:100FF00093409F438B6893401F4337610A68102AD0
:1010000001D0112A20D1124B02689A4217D193685D
:101010001B0219D4936843F40003936009681029F4
:1010200012D10C490C4A0968B1FBF2F101EB8101C4
:10103000490000E0491E00910029FBD104E0816ACB
:1010400041F020018162012480F824502046F8BD3F
:10105000002401401800002040420F00704770B586
:101060000446006806684568A90625D5B10723D55A
:10107000A16AC90603D4A16A41F40071A162816822
:10108000C1F34241072910D1217B71B9416821F098
:1010900020014160A06A20F48070A062A06AC004B0
:1010A00003D4A06A40F00100A0622046FFF7D6FFFB
:1010B00021686FF01200086028062ED570072CD525
:1010C000A06AC00603D4A06A40F40050A062206861
:1010D0008168C1F30231072909D04168490515D457
:1010E0008168C1F34241072910D1217B71B9416860
:1010F00021F080014160A06A20F48050A062A06AC3
:10110000C00503D4A06A40F00100A0622046FFF7AA
:1011100025FF21686FF00C00086068060CD5F00709
:101120000AD0A06A40F48030A062204600F094F813
:1011300021686FF00100086070BD00002DE9F041EA
:101140004FF0000704003D467ED0A06A002628B973
:10115000E66284F82460204600F080F82046FFF71D
:10116000ADF8A16AC90600D420B1A06A40F0100011
:10117000A06269E0A16A21F4885141F00201A162F4
:101180006268E169237B0A4347EA43010A43A16895
:101190004FF48077B94209D0012907D05FF00001F0
:1011A00094F814C0BCF1010F02D00AE03946F7E709
:1011B000F3B1A36A43F02003A362E36A43F001039F
:1011C000E3622368D3F804C02CF4694C4CEA010CA8
:1011D000C3F804C021688B68DFF870C003EA0C0311
:1011E00013438B60A168B9420BD0012909D00CE0F0
:1011F000DFF85CC0A3690CEB43330B4343F400619D
:10120000DFE7218A0D05A5F580152168CB6A23F457
:1012100070032B43CB62216889680E4B19409142C1
:1012200008D1E662A16A21F0020141F00101A16248
:10123000BDE8F081A06A20F0020040F01000A0623A
:10124000E06A40F00100E0620120F1E7FDF7E1FF14
:1012500000E0FFFFFE0E1FFF7047000000B585B0E5
:101260000021009101910291039100681249884286
:1012700020D11248816941F400718161816901F4D2
:1012800000710491816941F00401816180696946BE
:1012900000F0040004900220009003200190084810
:1012A00000F010F800220521122000F0B3F91220FE
:1012B00000F0A3F905B000BD002401400010024079
:1012C000000801402DE9F84FDFF8B8910024A9F19A
:1012D000040B23460F2709F1040AABF1040EC9E001
:1012E0000125A5402A40AA427DD1674ED1F804C00D
:1012F000ACEB0608B44532D014DCBCF1030F3AD095
:1013000009DCBCF1000F2AD0BCF1010F1CD0BCF1EC
:10131000020F31D11DE0BCF1110F17D0BCF1120F3B
:101320002AD119E0B8F5881F19D006DCB8F5803F3E
:1013300015D0B8F5801F1FD111E0B8F5001F0ED0F1
:10134000B8F5041F18D10AE0CB6815E0CB681B1D67
:1013500012E0CB6808330FE0CB680C330CE08B68ED
:101360002BB1012B4FF0080303D0456104E00423A7
:1013700002E0056100E00023FF2A01D8064601E0F3
:1013800000F104064FEA840501D9A5F12005D6F83D
:10139000008007FA05FC28EA0C0803FA05F548EA7C
:1013A0000508C6F800804D68ED0062D5374DAE697E
:1013B00046F00106AE61AD6924F0030605F00105B3
:1013C0000095334D06EB050CDCF80850A607360FE8
:1013D00007FA06F825EA0805DFF8B880404503D18A
:1013E0004FF0000817E044E0DFF8AC80404502D140
:1013F0004FF001080FE0DFF8A480404502D14FF024
:10140000020808E0DFF89880404502D14FF0030859
:1014100001E04FF0040808FA06F848EA0508CCF89D
:1014200008804D68D9F80060ED024D4601D516439D
:1014300000E096432E604D68DAF80060AD02554634
:1014400001D5164300E096432E604D68DBF800603E
:10145000AD035D4601D5164300E096432E604D680E
:10146000DEF80060ED03754601D5164300E09643B3
:101470002E60641C0D682A46E5407FF431AFBDE85C
:10148000F88F000008040140000011100010024015
:101490000000014000080140000C01400010014024
:1014A000001401408068084000D0012070470AB154
:1014B000016170470904FBE701488068704700003C
:1014C0000C00002002488168027811448160704756
:1014D0000C000020074810B5016841F010010160C0
:1014E000032000F0B7F80F2000F006F800F050F8E5
:1014F000002010BD0020024030B505461F4887B0CF
:10150000C16941F00401C161C06906A900F004008D
:10151000009001A800F0BCF90498B0B100F0D8F92F
:1015200040001749174AB0FBF1F11748491E026005
:10153000416040F2E7320021C0E90321816081610E
:1015400000F02AFC040003D015E000F0C1F9E8E740
:101550000D4800F0AFFC04000DD11E2000F04DF846
:10156000102D07D2002229461E2000F053F807480C
:10157000056000E0012407B0204630BD00100240A5
:1015800040420F00000800406C15002010000020B1
:101590000F4808B5816941F001018161816901F05D
:1015A00001010091C16941F08051C161C06900220F
:1015B00000F0805000900F21901E00F02BF805489D
:1015C000416821F0E06141F00071416008BD000018
:1015D000001002400000014000280DDB00F01F0257
:1015E000012191404009800000F1E020C0F8801105
:1015F000BFF34F8FBFF36F8F7047002809DB00F0F8
:101600001F02012191404009800000F1E020C0F854
:1016100000117047F0B40E4B1B680C46C3F3022355
:10162000C3F10705042D00D90425191D072901D28E
:10163000002300E0DB1E012606FA05F1491E2140C9
:1016400099409E40761E16403143F0BC03F044BBE7
:101650000CED00E0064900F0070208684FF6FF03B2
:10166000184040EA0220034A104308607047000017
:101670000CED00E00000FA052DE9F843054600787E
:10168000354CC00754D0E0690026C00008D4E0699A
:1016900040F08050E061E069012600F08050009049
:1016A0002E480168C90512D40168804641F4807152
:1016B0000160FFF701FF074605E000BFFFF7FCFEF2
:1016C000C01B642823D8D8F80000C005F6D5206ACE
:1016D00010F4407021D0A98801F4407181421CD0DF
:1016E000206A1F49012220F440700A6000220A602B
:1016F0002062C00711D0FFF7DFFE074641F28838AD
:1017000008E000BFFFF7D8FEC11B414502D9032006
:10171000BDE8F883206A8007F4D5206A696820F460
:101720004070084320621EB1E06920F08050E06103
:101730002878800705D56068A96820F440400843F0
:1017400060602878C00605D56068E96820F48000EC
:10175000084360600020DBE700100240007000409A
:10176000400442422DE9F0470F46050061D0434E48
:10177000306800F00700B84209D2306820F0070056
:1017800038433060306800F00700B84251D1286813
:101790003B4C810712D5400703D5606840F4E060F8
:1017A00060602878000703D5606840F4605060608E
:1017B0006068A96820F0F000084360602878C007DE
:1017C00028D06868012810D02168022810D0890725
:1017D00000292EDA616821F0030101436160FFF7FF
:1017E0006BFE804641F288390DE021688903EFE7FE
:1017F0008901EDE7FFF760FEA0EB0801494502D93A
:101800000320BDE8F0876068696800F00C00B0EB69
:10181000810FEFD1306800F00700B8420BD9306873
:1018200020F0070038433060306800F00700B8420D
:1018300001D00120E5E72878400705D56068E96810
:1018400020F4E060084360602878000706D56068EF
:10185000296920F4605040EAC100606000F058F847
:101860006168084AC1F30311515CC8400649086029
:1018700006480068FFF740FE0020C2E70020024053
:1018800000100240F6670008180000201000002039
:101890000F2202600C4A536803F00303436053684D
:1018A00003F0F0038360536803F4E063C36052689D
:1018B0004FF4E06303EAD20202610448006800F0DA
:1018C000070008607047000000100240002002403E
:1018D0000448054900684968044AC1F30221515C83
:1018E000C840704718000020001002400668000839
:1018F0000448054900684968044AC1F3C221515CA3
:10190000C840704718000020001002400668000818
:101910000E4A51680E4801F00C03042B11D0082B1D
:101920000FD10C48C1F38343C903C05C0AD5516889
:10193000084AC1F34041921E515C054A5043B0FB36
:10194000F1F070470449484370470000001002401E
:1019500000127A00E667000800093D002DE9F84F03
:10196000040070D02078C04DC00749D06868C0F32B
:101970008100012807D06868C0F38100022809D1DE
:101980006868C00306D52868800339D560680028D8
:10199000E7D035E06068B0F5803F0BD010B1B0F50E
:1019A000A02F11D0286820F480302860286820F407
:1019B000802002E0286840F480302860606890B1A0
:1019C000FFF77AFD06460AE0286840F48020286088
:1019D000F0E700BFFFF770FD801B642873D828680C
:1019E0008003F7D50CE0FFF767FD064605E000BF72
:1019F000FFF762FD801B6428F0D828688003F7D4C5
:101A000020789A4E80074FF001094FF0000839D531
:101A1000686810F00C0F07D06868C0F381000228D6
:101A200009D16868C00306D42868800714D52069E6
:101A3000012808D110E02069B0B1C6F80090FFF786
:101A40003BFD074605E00AE1FFF736FDC01B022813
:101A5000C4D828688007F7D52868616920F0F800A5
:101A600040EAC10028600DE0C6F80080FFF724FDC1
:101A7000074604E0FFF720FDC01B022823D8286892
:101A80008007F7D4207800072CD57948A169D9B10F
:101A9000C0F80090FFF710FD074604E0FFF70CFDCB
:101AA000C01B02280FD8686A8007F7D571484FF429
:101AB000FA510068B0FBF1F0009000BF0098411EA1
:101AC0000091FAD20EE080E0C0F80080FFF7F4FC4D
:101AD000074604E0FFF7F0FCC01B022875D8686ACF
:101AE0008007F7D42078400760D5E8690027C00058
:101AF00008D4E86940F08050E861E869012700F007
:101B0000805000905C480168C90513D40168834681
:101B100041F480710160FFF7CFFC824606E000BF10
:101B2000FFF7CAFCA0EB0A0064284ED8DBF80000DF
:101B3000C005F5D5E06801280AD008B1052813D002
:101B4000286A20F001002862286A20F0040002E0E0
:101B5000286A40F001002862E06841F2883B98B1B1
:101B6000FFF7AAFC82460BE0286A40F004002862D6
:101B7000EEE700BFFFF7A0FCA0EB0A0159455AD8D9
:101B8000286A8007F6D50CE0FFF796FC824605E050
:101B9000FFF792FCA0EB0A0159454CD8286A800750
:101BA000F6D41FB1E86920F08050E861E06988B39D
:101BB0006968C1F38101022944D00228C6F8608017
:101BC00004D0FFF779FC044638E034E0FFF774FCFA
:101BD000074604E0FFF770FCC01B02282BD82868DA
:101BE0008001F7D4206AB0F5803F05D16868A1680C
:101BF00020F4003008436860D4E9080108436968AC
:101C000021F4741108436860C6F86090FFF754FC33
:101C1000044606E025E000BFFFF74EFC001B02284B
:101C200009D828688001F7D51BE000BFFFF744FC06
:101C3000001B022802D90320BDE8F88F2868800124
:101C4000F4D40EE00128F7D06868226A00F48031ED
:101C5000914204D1616A00F47010884201D00120E1
:101C6000EAE70020E8E700000010024000004242DE
:101C70008004424218000020007000407047704706
:101C800010B590F83C20012A22D0012280F83C2097
:101C9000CA688C6822F4407222434C6822F4806245
:101CA00022430C6822F4006222430C6922F4805221
:101CB00022434C6922F400522243C969002322F4D2
:101CC00080420A4301684A6480F83C30002010BD1D
:101CD000022010BD70B590F83C20012A26D00124C6
:101CE00080F83C40022280F83D2003685A689D68D5
:101CF00022F070060A6832435A600D4B02689A421D
:101D000008D0B2F1804F05D00A4B9A4202D00A4B5C
:101D10009A4204D1496825F080031943916080F804
:101D20003D40002180F83C10084670BD022070BD87
:101D3000002C0140000400400008004010B504469B
:101D4000022084F83D002068016A41F2111211421C
:101D500007D1016A9210114203D1016821F00101FB
:101D60000160204600F046F8002084F8460084F820
:101D70003E0084F83F0084F8400084F8410084F875
:101D8000420084F8430084F8440084F8450084F855
:101D90003D0084F83C0010BD10B5040003D094F859
:101DA0003D0010B107E0012010BD002084F83C0088
:101DB000204600F043F8022084F83D00211D2068F1
:101DC00002F0FEFB012084F8460084F83E0084F80F
:101DD0003F0084F8400084F8410084F8420084F811
:101DE000430084F8440084F8450084F83D00002056
:101DF00010BD00000E4A01680E48914204D181696D
:101E000021F4006181617047B1F1804F0AD00A4A24
:101E10009142F8D1C16921F00201C1615FF01D005A
:101E2000FFF7DABBC16921F00101C1611C20F7E7AE
:101E3000002C0140001002400004004008B51A4A7E
:101E400001681A48914208D1816941F400618161B9
:101E5000806900F40060009008BDB1F1804F14D09B
:101E6000134A9142F8D1C16941F00201C161C069D0
:101E7000002200F00200009005211D20FFF7CAFBA0
:101E80001D20BDE80840FFF7B8BBC16941F0010162
:101E9000C161C069002200F00100009005211C20F2
:101EA000FFF7B8FB1C20ECE7002C014000100240BB
:101EB0000004004090F83D10012901D00120704736
:101EC000022180F83D100168CA6842F00102CA6030
:101ED00000680B49884208D0B0F1804F05D009490D
:101EE000884202D00849884204D1816801F0070184
:101EF000062903D0016841F001010160002070470C
:101F0000002C0140000400400008004070B5044669
:101F100090F83C000025012817D0012684F83C6089
:101F2000022084F83D002068826822F0770222F4C3
:101F30007F4282600868502838D00DDC20284FD0BE
:101F400005DC90B3102811D14AE0022070BD302882
:101F500046D040280AD13BE060282FD070280DD011
:101F6000B0F5805F03D0B0F5005F12D0012584F892
:101F70003D60002084F83C00284670BDCB68D1E964
:101F80000121206802F05FFB2068816841F0770141
:101F900009E0CB68D1E90121206802F054FB2068F8
:101FA000816841F480418160E1E719E0CA684968CD
:101FB000206802F0FDFB5021206806E0CA684968ED
:101FC000206802F006FC6021206802F046FBCEE7A4
:101FD000CA684968206802F0EBFB40212068F4E7FA
:101FE000226801461046F0E7704770B50446006865
:101FF00001694FF00005C943890715D4C168C94379
:10200000890711D4E91E01610120207720688069C9
:102010008007204602D0FFF7E7FF04E000F0BEF89B
:10202000204600F050F9257720680169C943490727
:1020300017D4C168C943490713D46FF00401016183
:10204000022020772068806910F4407F204602D06B
:10205000FFF7CAFF04E000F0A1F8204600F033F9D2
:10206000257720680169C943090716D4C168C943A7
:10207000090712D46FF0080101610420207720685D
:10208000C0698007204602D0FFF7AEFF04E000F0F1
:1020900085F8204600F017F9257720680169C943C3
:1020A000C90617D4C168C943C90613D46FF010011B
:1020B0000161082020772068C06910F4407F204625
:1020C00002D0FFF791FF04E000F068F8204600F02E
:1020D000FAF8257720680169C943C90708D1C168A2
:1020E000C943C90704D1891E0161204600F072F975
:1020F00020680169C943090609D4C168C9430906B2
:1021000005D46FF0800101612046FFF7B7FD20681C
:102110000169C943490609D4C168C943490605D4C0
:102120006FF040010161204600F070F920680169FC
:10213000C94389060BD4C168C943890607D46FF027
:10214000200101612046BDE87040FFF798BD70BDD9
:1021500000B585B0002100910191029103910068C2
:102160000B49884212D10B48816941F00401816119
:102170008069694600F0040004904FF4807000907C
:102180000220019003900448FFF79CF805B000BDC1
:10219000002C01400010024000080140704770B55B
:1021A000044690F83C0000260D4601280FD001207F
:1021B00084F83C006AB1042A1DD0082A2FD00C2ACA
:1021C0003FD00126002084F83C00304670BD02203C
:1021D00070BD206802F04AFA2068816941F0080168
:1021E00081612068816921F0040181612068816931
:1021F0002A69114311E0206802F060FA20688169C1
:1022000041F4006181612068816921F4806181610C
:10221000206881692A6941EA02218161D2E7206848
:1022200002F078FA2068C16941F00801C1612068B4
:10223000C16921F00401C1612068C1692A691143A3
:1022400011E0206802F092FA2068C16941F400614F
:10225000C1612068C16921F48061C1612068C169E0
:102260002A6941EA0221C161ACE710B5040003D03C
:1022700094F83D0010B107E0012010BD002084F863
:102280003C00204600F01EF8022084F83D00211D8D
:10229000206802F095F9012084F8460084F83E0099
:1022A00084F83F0084F8400084F8410084F842003C
:1022B00084F8430084F8440084F8450084F83D0025
:1022C000002010BD7047704710B50446022249B186
:1022D00004290ED0082913D094F84100012816D003
:1022E000012010BD94F83E000128F9D184F83E2069
:1022F0000FE094F83F000128F2D184F83F2008E075
:1023000094F840000128EBD184F8402001E084F8E3
:1023100041200122206802F089F90F492068884293
:1023200003D1426C42F4004242642068884208D0E3
:10233000B0F1804F05D00949884202D0084988424F
:1023400004D1816801F00701062903D0016841F03A
:1023500001010160002010BD002C0140000400407C
:102360000008004030B504460D460068002202F027
:102370005DF9174B41F2111120688A10984209D17A
:10238000036A0B4206D1036A134203D1436C23F460
:10239000004343642068036A0B4206D1016A11427C
:1023A00003D1016821F00101016001203DB1042D3C
:1023B00008D0082D09D084F84100002030BD84F8F1
:1023C0003E00FAE784F83F00F7E784F84000F4E7BE
:1023D000002C014010B5044600680A49884201D12A
:1023E000FFF770F808492068884201D101F0C6FC67
:1023F0002068B0F1804F03D1BDE81040FEF786BDE4
:1024000010BD00000008004000040040704770B597
:10241000040004D094F84100002510B106E001202A
:1024200070BD84F84050204600F024F8242084F841
:1024300041002068C16821F40051C160204602F0CB
:10244000E3FB2068016921F4904101612068416942
:1024500021F02A0141612068C16841F40051C16046
:102460006564202084F8410084F842006563002000
:1024700070BD000070B586B00024009401940294F1
:102480000394234E0368234902200322224DB342C2
:1024900019D18B6943F480438B618B6903F48043CA
:1024A00004938B6943F004038B618969039201F003
:1024B000040104910102CDE9001069462846FEF7A7
:1024C00001FF28151BE0154EB3421FD1CB6943F421
:1024D0000033CB61CB6903F4003304938B6943F081
:1024E00004038B618969039201F0040104910421C2
:1024F000CDE9001069462846FEF7E4FE0820CDE944
:102500000004694628460294FEF7DCFE06B070BD62
:102510000038014000100240000801400044004023
:10252000FEE701F03DB800001FB50525FEF7FCF8F9
:102530004FF00808DFF8D0904FF4FA7A00F02CFE44
:1025400002F0C2F902F058F9052D12D1002502AFB0
:1025500003AE03F03DFC31463846FEF701F906466E
:1025600004F068F8761C04D100208DF80C008DF87A
:102570000800082325A21021002001F040F946465A
:10258000CDF800809DF80C2002231021182001F0C6
:1025900013F900969DF8082003231021582001F01C
:1025A0000BF96D1CEDB201F041F92646FEF7A2FCD5
:1025B0000446A64218D0452C16D1052300221849FE
:1025C0004E46D9F8040003F0B7FA1548007B0328FB
:1025D0000ED00D491820091DCDE9000100233C2231
:1025E00010A1144803F0DEFE504603F037FAA5E7C9
:1025F00000F0D2FD01F01AF9706803F019FB002019
:1026000003F098FBF0E70000DC00002020543A3093
:102610003043202020483A30303025200000000090
:10262000883A00204D656E75506167655461736B23
:1026300000000000852C00082C4C08B5206803F031
:1026400079FB00F0A9FD062329A20921132001F03E
:10265000D6F806232AA21121282001F0D0F806235B
:102660002AA219211F2001F0CAF806232AA2242138
:102670002B2001F0C4F8062329A22C21312001F0DF
:10268000BEF8062328A23421132001F0B8F8002058
:10269000402380220146009000F0F4FE0023062231
:1026A0001946184600F0BEFD0023062219467F2079
:1026B00000F0B8FD002306224021184600F0B2FDCC
:1026C0000023062240217F2000F0ACFD01F0AEF88F
:1026D000FEF710FC462805D1206803F0A9FA002077
:1026E00003F0E2F9322003F0B9F9F1E7E00000204D
:1026F0002D2D2D2D2D2D2D2D2D2D2D2D2D2D2D0037
:102700004672656552544F5300000000416C61727F
:102710006D20436C6F636B00417574686F723A0093
:102720005A534A54460000002D2D2D2D2D2D2D2DB0
:102730002D2D2D2D2D2D000010B506484FF40053E2
:1027400009B1002200E001221946FEF7B0FE002088
:1027500010BD00000010014070B586B00024114883
:102760000094019402940394816941F01001816105
:1027700080690D4E00F010004FF400550490224681
:1027800029463046FEF793FE01200095CDE901046D
:102790000220039069463046FEF794FD06B0002003
:1027A00070BD00000010024000100140FFF7D4FF90
:1027B00000F0F6FE4FF4FA7401210846FFF7BCFF63
:1027C000204603F04BF900210120FFF7B5FF20461A
:1027D00003F044F9F0E700002DE9F04711484FF409
:1027E0002476012485888046A0F1300904EB440159
:1027F00008EB410738F81120788802EB420309EB17
:1028000043021E2132F8100001F048FAB888B5FBE7
:10281000F0F003F023F9641CA4B2B442E6D9BDE899
:10282000F0870000340100202DE9F04719482626E2
:10283000012485888046A0F6967900BF04EB440108
:1028400008EB410738F81120788802EB420309EBC6
:1028500043021E2132F8100001F020FAB888B5FBBF
:10286000F0F002F0B1FAFEF703FB46280CD100208D
:1028700001F0D4F9084F386803F016F90749002031
:102880003860086003F010F9641CA4B2B442D5D9D2
:10289000BDE8F0879A100020E40000208C11002091
:1028A0003EB5002410480094019402940D498460C0
:1028B000016004730475012505614FF460214460D3
:1028C000C161FEF73BFC08B1FEF784FA0095CDE943
:1028D000015469460448FEF743FB002801D0FEF787
:1028E00079FA3EBD00240140D41300203EB5FFF725
:1028F00018FE114A0021114802F0CAFA104C18259E
:102900000023A0600F480095A0F17801CDE90110E7
:102910001E220DA10F4803F072FD20600E480095A5
:10292000A0F58471CDE90110002342220BA10E48CD
:1029300003F065FD60603EBDC0670008ED4400081F
:1029400000000020141200204C69676874546573FD
:1029500074000000AD27000878130020486F6D65F3
:102960005061676500000000292500082DE9F04F3F
:1029700085B000243A48009401940294039481693C
:1029800041F010018161816901F0100104918169B8
:1029900041F020018161816901F020010491816988
:1029A00041F004018161816901F0040104918169B0
:1029B00041F0080181618069DFF8A89000F008000B
:1029C0004FF400550490002229464846FEF76FFD5B
:1029D000DFF894A0AF10002239465046FEF767FD9D
:1029E000DFF888B04FF44078002241465846FEF7A1
:1029F0005EFD0095022601250396CDE90154694646
:102A00004846FEF75FFCF0208DE8310069465046ED
:102A1000FEF758FC43F203008DE831006946584642
:102A2000FEF750FCA80200901148CDE90105694667
:102A30005846FEF747FC0097CDE902561127694634
:102A400050460197FEF73EFC0320CDE90240CDE958
:102A5000008769465846FEF735FC05B0BDE8F08FA3
:102A6000001002400010014000080140000C01402D
:102A70000000111010B596B000240F94109411941A
:102A8000129413941C2108A81494FDF7C4FB202170
:102A90006846FDF7C0FB2A48284901604721C0E984
:102AA000011440F2E731C0E903148021C0E9054177
:102AB000FFF772F908B1FEF78DF94FF480500F90CF
:102AC0000FA91F48FFF722FA08B1FEF783F91C4847
:102AD000FFF7CBFB08B1FEF77DF9139413A9184853
:102AE0001494FFF7F7F808B1FEF774F96020089026
:102AF00040F2F310CDE909040B940C940D940022DC
:102B000008A90F480E94FFF74AFB08B1FEF762F9D7
:102B100000944FF40050CDE90440029401940394D2
:102B2000694607480794FFF7ABF808B1FEF752F97A
:102B30000348FFF70DFB16B010BD0000002C01404C
:102B40000414002010B586B00024164800940194A7
:102B50000294039404944FF080410594016041F67F
:102B60001F41C0E901146321C0E903148461FFF728
:102B700013F908B1FEF72EF94FF480500090694622
:102B80000848FFF7C3F908B1FEF724F9049404A933
:102B900004480594FFF79EF8002801D0FEF71AF9C3
:102BA00006B010BD4C14002010B586B000241748A4
:102BB00000940194029403940494134905940160D1
:102BC00041F61F41C0E9011440F2F311C0E90314BA
:102BD0008461FFF7E1F808B1FEF7FCF84FF480508C
:102BE000009069460948FFF791F908B1FEF7F2F83D
:102BF000049404A905480594FFF76CF8002801D057
:102C0000FEF7E8F806B010BD000400409414002060
:102C10000C4810B50A4901604FF4E13141600021D0
:102C200081600C22C160C0E904128161C161FFF7BB
:102C3000EEFB002803D0BDE81040FEF7CBB810BD76
:102C400000380140DC1400200C4810B50A4901602E
:102C50004FF4E1314160002181600C22C160C0E984
:102C600004128161C161FFF7D2FB002803D0BDE8E7
:102C70001040FEF7AFB810BD0044004024150020FE
:102C8000FEE70000164D286803F054F8154C452067
:102C90004626607000F080FA1248C01CFDF7DEFD89
:102CA00000F0C4FD20786070FEF7E2F820706178D3
:102CB000814211D080B101F06DF8E0700948C01C6C
:102CC00000F054FE2078462806D1286802F0B0FFB4
:102CD000002003F02FF82670642002F0BFFED9E731
:102CE00004000020F0000020F8B50078824F012891
:102CF0003CD0824E02286BD0814F03287ED0814E7B
:102D000004287CD0052830D100247F4F254600BF01
:102D100000F042FA08237DA20021302000F06FFD70
:102D2000C5F14000C1B206237AA2312000F067FD50
:102D3000A4F11E001F23C0B21A461321009600F012
:102D4000E3FC04F132001F23C0B21A46132100979E
:102D500000F0DAFC00F06AFD142002F07FFE083477
:102D60006D1CE4B2EDB2512CD2D3F8BD00246B4EF1
:102D7000254600BF00F010FA082364A2002130208D
:102D800000F03DFDC5F14000C1B2062364A2312030
:102D900000F035FDA4F11E001F23C0B21A46132116
:102DA000009600F0B1FC04F132001F23C0B21A46B5
:102DB0001321009700F0A8FC00F038FD142002F069
:102DC0004DFE08346D1CE4B2EDB2512CD2D3F8BDE7
:102DD0000024254600F0E0F908234CA20021302011
:102DE00000F00DFDC5F14000C1B206234EA2312016
:102DF00000F005FDA4F11E00C0B201E01BE04BE0B5
:102E00001F231A461321009700F07EFC04F13200C4
:102E10001F23C0B21A461321009600F075FC00F083
:102E200005FD142002F01AFE08346D1CE4B2EDB268
:102E3000512CCFD3F8BD00244FEA040500F0ACF9C3
:102E4000082332A20021302000F0D9FCC5F1400057
:102E5000C1B2062336A2312000F0D1FCA4F11E003D
:102E60001F23C0B21A461321009600F04DFC04F156
:102E700032001F23C0B21A461321009700F044FC11
:102E800000F0D4FC142002F0E9FD08346D1CE4B21B
:102E9000EDB2512CD2D3F8BD0024254600F07CF9C8
:102EA00008231AA20021302000F0A9FCC5F140003F
:102EB000C1B2062320A2312000F0A1FCA4F11E0023
:102EC0001F23C0B21A461321009700F01DFC04F125
:102ED00032001F23C0B21A461321009600F014FCE2
:102EE00000F0A4FC142002F0B9FD08346D1CE4B21B
:102EF000EDB2512CD2D3F8BDE4700008DC710008AB
:102F000058720008D4720008507300084D656E7541
:102F10000000000054696D657200000060710008D7
:102F200054696D6500000000416C61726D00000025
:102F30004D7573696300000047616D650000000016
:102F4000F8B50078824F02283CD0824E03286BD01F
:102F5000814F04287ED0814E05287CD0062830D1B0
:102F600000247F4F254600BF00F016F908237DA2FC
:102F70000021302000F043FCC5F14000C1B206231F
:102F80007AA2312000F03BFCC4F132001F23C0B212
:102F90001A461321009600F0B7FBC4F182001F23EC
:102FA000C0B21A461321009700F0AEFB00F03EFCC1
:102FB000142002F053FD08346D1CE4B2EDB2512C24
:102FC000D2D3F8BD00246A4E254600BF00F0E4F8D5
:102FD000082364A20021302000F011FCC5F140005C
:102FE000C1B2062363A2312000F009FCC4F1320013
:102FF0001F23C0B21A461321009600F085FBC4F1CE
:1030000082001F23C0B21A461321009700F07CFBF8
:1030100000F00CFC142002F021FD08346D1CE4B219
:10302000EDB2512CD2D3F8BD0024254600F0B4F8FF
:1030300008234CA20021302000F0E1FBC5F1400044
:10304000C1B206234DA2312000F0D9FBC4F13200F9
:10305000C0B201E01BE04BE01F231A46132100978A
:1030600000F052FBC4F182001F23C0B21A461321A4
:10307000009600F049FB00F0D9FB142002F0EEFCB2
:1030800008346D1CE4B2EDB2512CCFD3F8BD00244E
:103090004FEA040500F080F8082332A20021302016
:1030A00000F0ADFBC5F14000C1B2062335A23120CE
:1030B00000F0A5FBC4F132001F23C0B21A46132151
:1030C000009600F021FBC4F182001F23C0B21A4613
:1030D0001321009700F018FB00F0A8FB142002F069
:1030E000BDFC08346D1CE4B2EDB2512CD2D3F8BD56
:1030F0000024254600F050F808231AA200213020B1
:1031000000F07DFBC5F14000C1B206231FA23120B3
:1031100000F075FBC4F132001F23C0B21A46132120
:10312000009700F0F1FAC4F182001F23C0B21A46E2
:103130001321009600F0E8FA00F078FB142002F06A
:103140008DFC08346D1CE4B2EDB2512CD2D3F8BD25
:10315000E4700008DC71000858720008D47200089E
:10316000507300084D656E750000000053657400D3
:1031700060710008416C61726D0000004D757369EB
:103180006300000047616D650000000054696D65D3
:1031900072000000FEE7000010B50021074C0A464F
:1031A000002004EBC1131A54401CC0B28028FAD38B
:1031B000491CC9B20829F3D310BD0000883600208D
:1031C000F0B57F282AD83F2928D88418802C02D926
:1031D000C0F18002D2B2CC18402C02D9C1F1400318
:1031E000DBB20126DFF838E087180B4414E001F069
:1031F000070206FA02F5CA0804460EEBC21207E0FF
:1032000012F804C02CEA050C02F804C0641CE4B2F5
:10321000A742F5D8491CC9B28B42E8D8F0BD0000DE
:10322000883600202DE9FF4F87B08046C2F10100AB
:10323000144603900E46081941B24FFA88F0002553
:10324000814600F007F9301B41B2484600F002F910
:1032500077B208EB040040B2394600F0FBF8A8EB67
:103260000400394640B200F0F5F80A98002875D0FD
:10327000674206E0F01941B2484600F0EBF87F1CC7
:103280003FB2A742F6DB69E06D1C03982DB200281F
:1032900002DA00EB450004E0641E24B2291B00EBB7
:1032A0004100401C00B20390301941B208EB050008
:1032B00040B281460291069000F0CCF8701941B2FC
:1032C00008EB040040B28346059100F0C3F8301BC0
:1032D00047B2A8EB050040B201903946009000F0DB
:1032E000B9F8701B41B2A8EB040040B282460491C9
:1032F00000F0B0F83946484600F0ACF8584604995A
:1033000000F0A8F80299009800F0A4F8504605993A
:1033100000F0A0F80A9808B3604207B20BE0F01979
:1033200041B28946069800F095F84946019800F0A8
:1033300091F87F1C3FB2A742F1DB684207B20BE075
:10334000F01941B28946504600F084F84946584683
:1033500000F080F87F1C3FB2AF42F1DBA54293DB67
:103360000BB0BDE8F08F2DE9F04F1D464FF000097E
:1033700014464E46A94211D1A04202DD0246204623
:10338000144605464EB205E0314668B200F062F8D8
:103390006D1C2DB2A542F7DDBDE8F08FA0420FD124
:1033A000A94201DD0D4619460C4646B205E061B260
:1033B000304600F04FF8641C24B2AC42F7DDEBE776
:1033C00004DD024620460D4614461946A94203DD97
:1033D00049426D424FF001096A1A231A9A4206DDEA
:1033E00002460846114622462C46154601266A1A10
:1033F000231AD51A4FEA450A4FEA420BC3EB42089B
:1034000005460F461CE0684241B203E0784241B2F3
:1034100003E069B278B201E079B268B200F01AF85C
:10342000A542B9DA6D1C2DB2B8F1000F02DA08EB33
:103430000B0003E07F1C3FB208EB0A000FFA80F894
:10344000B9F1000F02D0002EE0D0DCE7002EE3D06F
:10345000DFE7000010B5802811D240290FD2CA172B
:1034600001EB5272D410064B22F0070203EBC41397
:1034700018448A1A0378012191400B43037010BD50
:10348000883600202DE9F04F88460446099908EB5C
:10349000030586182746A9BB681E4FFA88FB4FFA1A
:1034A00080F90AE078B259468246FFF7D3FF4946D1
:1034B0005046FFF7CFFF7F1CFFB2BE42F2D847460F
:1034C0004FFA84F8761E74B20AE079B20E4640468E
:1034D000FFF7C0FF20463146FFF7BCFF7F1CFFB25D
:1034E000BD42F2D8BDE8F08F44464FFA87F905E0B7
:1034F00061B24846FFF7AEFF641CE4B2A542F7D8BC
:103500007F1CFFB2BE42EFD8ECE710B500204FF4AD
:103510007A720021491C9142FCD3401C9042F8D39E
:10352000012000F097F9BDE81040012000F09AB9A1
:1035300070B500240646802525FA04F0304000D0FE
:10354000012000F08FF9012000F084F9002000F044
:1035500081F9641CE4B2082CEED3012000F07AF962
:10356000BDE87040002000F075B910B5012000F0F2
:1035700079F9012000F06EF9002000F073F9BDE840
:103580001040002000F066B910B5002000F06AF984
:10359000012000F05FF9BDE81040012000F062B9A1
:1035A00010B5FFF7B2FFAE2000F064F9D52000F0AF
:1035B00061F9802000F05EF9A82000F05BF93F205F
:1035C00000F058F9D32000F055F9002000F052F92E
:1035D000402000F04FF9A12000F04CF9C82000F085
:1035E00049F9DA2000F046F9122000F043F9812071
:1035F00000F040F9CF2000F03DF9D92000F03AF971
:10360000F12000F037F9DB2000F034F9302000F031
:1036100031F9A42000F02EF9A62000F02BF98D201E
:1036200000F028F9142000F025F9BDE81040AF2083
:1036300000F020B90246012000E05043491EFCD2B0
:1036400070470000F0B57F282AD83F2928D8841871
:10365000802C02D9C0F18002D2B2CC18402C02D901
:10366000C1F14003DBB20126DFF838E087180B44D4
:1036700014E001F0070206FA02F5CA0804460EEB50
:10368000C21207E012F804C08CEA050C02F804C06C
:10369000641CE4B2A742F5D8491CC9B28B42E8D8F1
:1036A000F0BD00008836002010B50C4640F0B00098
:1036B00000F0E0F8102040EA141000F0DBF804F00D
:1036C0000F00BDE8104000F0D5B8000008B5082B89
:1036D0000DD0062B0AD10A4B02EB420203EB420249
:1036E000C03A00920823062200F00EF808BD054BF0
:1036F00003EB0212A2F50072102300920822F3E7F6
:10370000FE6D00080E6800082DE9FC4F1F461546A7
:103710000C4606467F284AD83F2C48D8FFF750FD74
:10372000781EC117002300EB51700121DFF884B02F
:1037300004F0070901EBE00737E0002031E0311821
:103740007F2930D803EBD40ABAF1070F2FD80BEB3F
:10375000CA1E03FB05F21EF801C00192DDF82C80A1
:103760008044CDF8008012F8082002FA09F24CEAF1
:10377000020C0AF101020EF801C0072A0FD80EEB65
:103780000108DDE900C198F8802011F80CC0C9F1EA
:1037900008012CFA01FC42EA0C0288F88020401C47
:1037A000C0B2A842CBD35B1CDBB29F42C5DCBDE8F4
:1037B000FC8F0000883600202DE9F04700241D46CC
:1037C00090468A4681460A27089E14E0291B0A2053
:1037D000491EFFF72FFFB8FBF0F0B0FBF7F107FB36
:1037E000110204FB0690C0B2334651463032FFF757
:1037F0006DFF641CE4B2AC42E8D3BDE8F0872DE96C
:10380000F0411E46154688460746002408E004FBA2
:103810000670C0B233464146FFF758FF641CE4B25D
:103820002A5D002AF3D1BDE8F081000070B5084D93
:10383000002400212046FFF737FF05EBC41080214C
:1038400000F029F8641CE4B2082CF2D370BD00002B
:103850008836002002464FF480710148FDF727BEEC
:10386000000C014002464FF400710148FDF71FBEF5
:10387000000C014010B50446FFF777FE7820FFF7F3
:1038800057FE0020FFF754FE2046FFF751FEBDE82B
:103890001040FFF779BE70B50D460646FFF765FE8E
:1038A0007820FFF745FE4020FFF742FE002404E0A9
:1038B000305DFFF73DFE641CE4B2AC42F8D3BDE8D6
:1038C0007040FFF761BE00007CB500781825012824
:1038D00015D0022812D1194C052300221649206860
:1038E00002F02AF91448007B032818D00023174857
:1038F000322213A1CDE9005402F054FD7CBD154CD9
:10390000052300221249206802F016F91048007BB6
:10391000032804D000233C220FA11348EAE7FFF755
:103920003BFCFFF783FF206802F082F9BDE87C4092
:10393000002002F0FFB90000F43A0020EC00002063
:10394000537461725761725461736B00153E0008C5
:10395000D03A0020E800002044696E6F47616D6531
:103960005461736B000000005D0900087CB5374CA2
:103970000026217845290CD0502909D10078032848
:1039800006D1002000F04AF9A06802F08DF8A66088
:103990007CBD00781825012815D002281CD00328EA
:1039A00024D0042844D0052846D00628F0D1274842
:1039B00000231030CDE90050322225A1274802F023
:1039C000F1FC26617CBD21480023001DCDE900509B
:1039D0003C2223A1254806E025480023CDE90050DC
:1039E0003C2224A1264802F0DDFC7CBD05230022F8
:1039F0002449A06802F0A0F82248007B03280AD0DE
:103A000002280DD0114800230830CDE900502D22A6
:103A10001DA12148E7E7A068BDE87C4002F008B995
:103A2000002000F0FBF8A068BDE87C4002F082B9FD
:103A3000BDE87C4000F03AB8044800230C30CDE9E2
:103A400000503C2215A11848CDE70000F0000020EE
:103A5000496E666F5461736B0000000039260008E0
:103A600054696D655365745461736B004D4900086A
:103A7000E4000020416C61726D5461736B000000C2
:103A800015030008183B0020506C61794D7573696F
:103A9000635461736B000000253D000854696D6537
:103AA000725461736B000000F54A00082DE9FC4771
:103AB00045244FF00109374EDFF8DC808DF8049083
:103AC000002500BFFFF768FB12231A4615212220AC
:103AD0000096FFF719FE12231A4615214C20CDF847
:103AE0000080FFF711FE14231A4619462120009585
:103AF000FFF7C8FC14231A4619464B200095FFF720
:103B0000C1FC9DF80400012802D002280BD104E07A
:103B100014231A461946212003E014231A46194695
:103B20004B20FFF78FFD01A8FDF756F92746FDF75B
:103B3000E1F90446A74219D0422C01D0432C0ED102
:103B40009DF80400012804D0432C06D0422C04D058
:103B500005E002208DF8040008E0022804D0452C7E
:103B60000CD0502C0ED001E08DF80490FFF75EFED3
:103B7000462C0DD0322001F071FFA3E701A8FFF71A
:103B8000A3FE02E001A8FCF701FDFFF74FFEF1E7FD
:103B9000BDE8FC87387000086E70000810B50F484B
:103BA0000021012201704170C2811E238370C17007
:103BB0000171042343714FF4C073438281828023D7
:103BC000C3820824048381714383C2711C22027260
:103BD00041728172C4728183017310BD9C00002008
:103BE0000D48012105220170002141708170C170D2
:103BF0008182C1820271182242718171C171017288
:103C000041720A228272C1720C2202734273827361
:103C1000C273017441747047C4000020010004485D
:103C20004FF00001006801D0FEF74EBBFEF79ABBD3
:103C30009800002070B58CB01C216846FCF7EBFAA8
:103C40004FF480700225CDE90705002407A910482C
:103C5000CDE90945FDF736FB0F4E0E484722316886
:103C600015C140F2E732E1E80224802261E8044213
:103C700000F0A6FC60200090049440F2F310CDE91F
:103C80000105002269463068FEF789FA0CB070BD64
:103C900000080140002C0140980000202DE9F0416F
:103CA00088B0884606461C216846FCF7B4FA1A4CD0
:103CB00000212068FEF756FB2068FEF73FF82068D9
:103CC0001649002501604721C0E90115144F97FBF3
:103CD000F6F1491EC0E903158021C0E90551FEF740
:103CE0005BF8602000900220029097FBF6F0401EE7
:103CF00000FB08F0642190FBF1F004950190002294
:103D000069462068FEF74BFA00212068FEF7DCFACE
:103D100008B0BDE8F081000098000020002C0140B0
:103D200040420F00FFF786FFFEF756FDFCE700005C
:103D3000FFF780FF094C206801F0B6FE00202060EC
:103D4000FFF72AFA082306A218212C20FFF757FDB7
:103D5000FFF76CFDFEF768FDF2E70000E4000020CD
:103D6000416C61726D00000003490A7802704A7864
:103D700042708978817070479011002010B5FDF76E
:103D800077F8002803D0024948700120087010BD60
:103D90009400002010B5104C2046217880784229EC
:103DA00002D0432909D010E006280ED2401CA07092
:103DB0000948801CFFF7C4F807E001280AD9401E13
:103DC000A0700548801CFEF78FFFA078062801D957
:103DD0000620A070A07810BDF000002008B5FFF705
:103DE000DBF9094800210090402380220846FFF7B4
:103DF0008BFC062305A238215C20FFF700FDBDE8FF
:103E00000840FFF713BD00009B7C000856312E30A0
:103E10002E300000FE4F08B5386801F08BFFFFF729
:103E2000DFFEFFF7DBFFFB4C4526A670FDF762F8CF
:103E300060704FF0060A4FF0020B00254FF00109A9
:103E4000B04620E0A070FDF755F86070FDF752F81D
:103E5000492804D0FDF74EF850280BD010E0386800
:103E600001F0E6FE002001F065FF84F80180FFF715
:103E7000B5FF05E0386801F0DBFE002001F014FE1C
:103E8000322001F0EBFD60784528DBD1A17845298F
:103E9000D8D05646FFF780F9E07801287ED0E08A36
:103EA0000521C0F1850040B2FFF7D4FAE08A07216E
:103EB000C0F1880040B2FFF7CDFAE08A3821C0F1A6
:103EC0008A0040B2FFF7C6FAE08A3121C0F18E00C5
:103ED00040B2FFF7BFFAE08A1821C0F1980040B263
:103EE000FFF7B8FAE08A2B21C0F1990040B2FFF742
:103EF000B1FAE08A1E21C0F1B20040B2FFF7AAFA7F
:103F0000E08A1021C0F1B70040B2FFF7A3FAE08ABF
:103F10001C21C0F1C60040B2FFF79CFAE08A2421C0
:103F2000C0F1CE0040B2FFF795FAE08A1921C0F146
:103F3000C60040B2FFF78EFAE08A3E21C0F1D00001
:103F400040B2FFF787FAE08A3921C0F1D80040B2C9
:103F5000FFF780FAE08A2B21C0F1E40040B2FFF7BE
:103F600079FAE08A0B21C0F1EB0040B2FFF772FA58
:103F7000E08A3421C0F1F50040B2FFF76BFAE08A25
:103F80000B21C0F5857040B2FFF764FAE08A062184
:103F9000C0F58B7040B2FFF75DFA00E05AE0A07DFB
:103FA0003821A0F22310404240B2FFF753FAE08AD2
:103FB0000C21C0F59D7040B2FFF74CFAA07D2C217A
:103FC000A0F23D10404240B2FFF744FAE08A1921C6
:103FD000C0F5A37040B2FFF73DFAE08A2021C0F59A
:103FE000A47040B2FFF736FAE08A3C21C0F5A77012
:103FF00040B2FFF72FFAA07D1221A0F257104042E5
:1040000040B2FFF727FAE08A3821C0F5B57040B218
:10401000FFF720FAE08A801C80B2E082FE2800D9F7
:10402000E58206237CA201211C20FFF7E8FB082380
:10403000202201212E200095FFF724FA207905285F
:1040400055D0042858D003285BD002285ED0012820
:1040500061D068E071480090282333220A210120B2
:10406000FFF752FB06236EA218213620FFF7C7FB8D
:1040700000960423628A20216820FFF79DFB062317
:104080006AA22C213620FFF7BAFB00960423A28AED
:1040900034216820FFF790FBFFF7C8FBFCF72AFFED
:1040A0006070452804D049280ED0502815D01AE059
:1040B000A08A618A884200D96082FFF791FDFFF7EC
:1040C0006BF8FFF7B3FB0EE0386801F0B1FD00209C
:1040D00001F030FE84F8018005E0386801F0A8FDA9
:1040E000002001F0E1FC322001F0B8FCD2E606230A
:1040F0001E22CDF8009012E006231822CDF8009081
:104100000DE006231222CDF8009008E006230C22D1
:10411000CDF8009003E006231A46CDF80090022166
:104120002F20FFF7AFF9062341A236211C20FFF70D
:1041300066FB00960323A28A36214020FFF73CFB52
:1041400006233DA236216E20FFF759FB009601237E
:10415000227836217A20FFF72FFB00960223A27ADD
:1041600000217420FFF728FB607A012866D1207CAB
:1041700010B12A2803D006E0217BA17303E0217B44
:10418000E17384F811B02178042910D2801DC0B2E7
:104190002074A17BC0F16200C91CC9B2C0B2012366
:1041A0000222FFF73FF8207C5F2800D32574207897
:1041B000032824D9207C0123801DC0B22074A17B58
:1041C000C0F16200C91CC9B2C0B20222FFF72AF8CE
:1041D000607C60B1E17BC0F16200C91CC9B2C0B2B1
:1041E00001230322FFF71EF8607C801D6074207C91
:1041F0005F2800D32574607C5F2800D36574207C21
:10420000C0F16200142824DCA07B6179821C16E0D6
:10421000E0000020C400002048503A009B800008C5
:10422000486967682053636F72653A004E6F772064
:1042300053636F72653A00004C3A00001BE08A42FB
:1042400007D9801E1031884203DA2079401E207180
:104250002574607CC0F1620014280CDCE17B60797D
:10426000CA1C824207D91030C91E814203DA207964
:10427000401E20716574607A10B101286AD087E011
:10428000E07A0C2801D2401CE072C0B205280ED0A2
:10429000062811D0072814D0082817D009281AD0CA
:1042A0000A281DD00B2820D00C282BD070E000232A
:1042B0000222217B802069E000230322217B7B20D6
:1042C00064E000230422217B76205FE000230622A5
:1042D000217B72205AE000230822217B6E2055E0CA
:1042E00000230A22217B6A2050E000230B22217B3D
:1042F0006620FEF797FF207B0123C01CC1B202227B
:10430000662043E000230C22217B6220FEF78AFF17
:10431000207B0123C01CC1B203226420FEF782FF70
:1043200084F809902078012808D0022808D00328B2
:1043300008D0042808D0052808D009E00A2006E0A3
:104340000E2004E0142002E01E2000E02E20A072C7
:10435000E5721DE0207B0C2802D9617B814201D8E7
:1043600033283ED360732178042901D2401A00E03B
:10437000C01E2073C1B200230C226220FEF752FF40
:10438000207B0123C01CC1B203226420FEF74AFF38
:10439000FCF7B0FD60704528E0792FD000B3E079DC
:1043A000237A00F11401CAB21030C0B21946FEF7E8
:1043B000DAFFE079217A00F1140C491CCBB21030FD
:1043C0000CF0FF02C9B2C0B2FEF7CDFFE0790830B1
:1043D000C0B2E071792800D9E571607A012815D062
:1043E00029E0617B814201D30C28D1D86073217808
:1043F000042901D20844BCE7C01CBAE70028CED18A
:1044000084F807B06079C01D2072C8E7E0791030E9
:104410005C2810D9207B227AA0F10C018A420ADDA7
:104420000C30521C824206D2A07A401EA072A08A92
:10443000401CA082E571A079032812D2617840293E
:1044400002D0412906D00CE0401CA071607940B137
:10445000001F05E0401CA0716079302801D2001DCA
:104460006071A079022800D9A5711F48009010231F
:104470001A4661790420FFF747F9A08A142807D06B
:104480003E2808D0A22808D0B0F5C97F07D008E0A0
:1044900084F800B005E0032002E0042000E00520DD
:1044A0002070A07A00B96572207908B984F8039069
:1044B000FFF7BCF9322001F0D1FA6078492809D021
:1044C00050287FF413AE386801F0B2FB002001F0F1
:1044D000EBFADFE4386801F0ABFB002001F02AFCC6
:1044E00084F80180D6E400007B7C0008012000F005
:1044F00079FCFBE710B5502080F31188BFF34F8F94
:10450000BFF36F8F01F0BAFF18B104494FF080502C
:104510000860002080F3118810BD000004ED00E069
:1045200030B593B028216846FBF775FE14210AA820
:10453000FBF771FE002501200F95109511950104E0
:1045400012958DE8230004904FF4E010CDE9081097
:10455000022407946846FDF701FA08B172B6FEE737
:104560000AA90F2081E831004FF48060CDE90D05E4
:1045700002210AA8FDF7F6F808B172B6FEE74FF47B
:10458000004011900F940FA8FDF776F8002801D095
:1045900072B6FEE713B030BD704700000148FDF76A
:1045A00024BD00004C1400200148FDF71EBD000092
:1045B000941400200148FDF718BD00006C15002080
:1045C000F0B50268164B174C174D4FF080479842D4
:1045D00005D0B84203D0A04201D0A84203D122F0B6
:1045E00070064A683243984205D0B84203D0A042D0
:1045F00001D0A84203D122F44074CA6822434C6916
:1046000022F08002224302608A68C2620A688262E3
:10461000984201D10969016301214161F0BD0000A7
:10462000002C0140000400400008004010B501F0DB
:104630001F030121046A99408C430462016A9A4075
:104640001143016210BD10B5846842EA032224F4CC
:104650007F440A432243826010BD826822F07002C8
:104660000A4342F0070181607047000030B5036AD9
:10467000026A22F0010202624268846924F0730532
:104680000C682C4323F002058B682B430A4DA8428B
:104690000BD123F00805CB6822F440722B434D69FF
:1046A00023F0040315438A692A4342608461496800
:1046B0004163036230BD0000002C014030B5026A46
:1046C000036A23F010030362436884690D6824F4CD
:1046D000E64444EA05248D6822F0200242EA0512ED
:1046E0000B4DA8420ED1CD6822F0800242EA05129D
:1046F0004D6923F4406343EA85038D6922F040024B
:1047000043EA85034360846149688163026230BD86
:10471000002C014030B5036A026A22F48072026202
:104720004268C46923F4007324F073050C682C43B9
:104730008D6843EA05230C4DA8420ED1CD6823F4C1
:10474000006343EA05234D6922F4405242EA051210
:104750008D6923F4806342EA05124260C4614968AE
:10476000C163036230BD0000002C014030B5046A13
:10477000026A22F4805202624268C3690D6823F41F
:10478000E64343EA05238D6824F4005444EA0534E3
:10479000064DA84204D14D6922F4804242EA8512B6
:1047A0004260C36149680164046230BD002C01406D
:1047B00010B5036A046A24F001040462846924F0D9
:1047C000F00444EA021423F00A020A4384610262FC
:1047D00010BD10B5036A046A24F0100404628469F1
:1047E00023F0A00324F4704444EA023243EA0111A6
:1047F0008261016210BD000038B52C4C05230022F7
:104800002949A06801F098F92A480523002228497F
:10481000006801F091F92449052300222431E06861
:1048200001F08AF92049052300224831206901F06E
:1048300083F91D482430007B032801D0022807D1CA
:104840001D48102300901A4630215E20FEF75CFFC1
:1048500015484830007B032801D0022807D11748AB
:10486000102300901A4630217020FEF74DFF0E48AD
:10487000007B032801D0022807D1114810230090A3
:104880001A4630210020FEF73FFF0948007B02282E
:1048900001D0032807D10B48102300901A4630217D
:1048A0001220FEF731FF38BDAC3A0020DC000020BA
:1048B000183B0020F8000020F87600087B7C0008F8
:1048C000A4700008C47000081CB5194C4FF0080310
:1048D0002078012824D017A200212020FEF78FFF86
:1048E0002078401C207001A8FFF73EFA08240094AD
:1048F0009DF80420022300212020FEF75DFF009494
:104900009DF80520022300213820FEF755FF009472
:104910009DF80620022300215020FEF74DFF1CBD0C
:1049200007A200212020FEF76AFF0020DAE700003E
:10493000DC0000202020202020202020000000007B
:1049400020203A20203A202000000000504E86B05F
:10495000306801F0EFF945208DF8040001208DF852
:104960001400002504A8FFF7FFF99DF810008DF84A
:1049700008009DF811008DF809009DF812008DF8CF
:104980000A004FF00808434CFEF706FC082342A239
:1049900018212020FEF733FF4746CDF800809DF810
:1049A0000820022318212020FEF706FF00979DF81B
:1049B0000920022318213820FEF7FEFE00979DF8FB
:1049C0000A20022318215020FEF7F6FE3B2D01D9C4
:1049D000002515E01D2D13D99DF81400012804D0E1
:1049E000022807D003280BD121E0102318211A46F2
:1049F000202003E010231A4618213820FEF722FE5B
:104A00006D1CEDB2FEF712FF9DF80470FCF730FA52
:104A10008DF804008742B7D00028B5D042280BD0CB
:104A200043280ED040281AD0412818D01CE010236B
:104A300018211A465020E1E72078032806D2401CAE
:104A400003E02078012806D9401E2070C0B2032858
:104A500001D903202070C0B28DF8140004E005AA2B
:104A600002A901A8FBF7FDFC9DF80400452802D02F
:104A7000462803D008E002A800F024F9306801F0CD
:104A8000D7F8002001F010F8322000F0E7FF7BE7B4
:104A9000E00000208411002020203A20203A20202D
:104AA0000000000070B5124A537913B90123137145
:104AB0005371D3886424B3FBF4F504FB153585707A
:104AC000B3FBF4F53C24B5FBF4F604FB1655457036
:104AD00041F27075B3FBF5F3B3FBF4F504FB15334A
:104AE00003700878002802D150711071D08070BD19
:104AF00090110020434E86B0306801F01BF900256C
:104B000002950395452404958DF81450FEF744FB57
:104B100004AA03A902A8FBF763FD9DF8140001286D
:104B200003D105A902A8FFF7BDFFFEF77FFE2746C8
:104B3000FCF79EF90446A742E8D0002CE6D0452CAD
:104B400004D0492C40D0462C51D056E09DF80800A6
:104B500028B99DF8091011B99DF80A1019B19DF8EE
:104B60000C1021B109E001208DF814001CE09DF823
:104B70000D1011B99DF80E1019B19DF8101059B112
:104B800010E08DF80C009DF809008DF80D009DF8DF
:104B90000A008DF80E0030E09DF8111011B99DF853
:104BA000121031B18DF8145005A902A8FFF77AFF51
:104BB00023E08DF810009DF809008DF811009DF894
:104BC0000A008DF8120018E08DF80A508DF80E508A
:104BD0008DF812508DF809508DF80D508DF8115048
:104BE0008DF808508DF80C508DF8105005E03068A5
:104BF00001F01EF8002000F057FF0A2000F02EFF01
:104C000084E70000E000002070B5044600680169F8
:104C1000E26821F44051114301612169A068084311
:104C2000616908432168CA6841F20C639A430243F0
:104C3000CA6020684169A26921F440711143416151
:104C40001E492068884202D1FCF752FE01E0FCF7C1
:104C50003FFE00EBC00101EB0012606864218000A0
:104C6000B2FBF0F3B3FBF1F36FF018067343B2FB42
:104C7000F0F5B2FBF0F605EB8305322303EB0515E7
:104C8000B5FBF1F5B6FBF1F605F0F00505EB061501
:104C9000B2FBF0F6B2FBF0F0B0FBF1F06FF01802EF
:104CA000504306EB800003EB0010B0FBF1F02168ED
:104CB00000F00F002844886070BD000000380140FB
:104CC000FEE70000034902780A7042784A70807853
:104CD00088707047901100200907090E002804DB36
:104CE00000F1E02080F80014704700F00F0000F1A0
:104CF000E02080F8141D704702E008C8121F08C1A8
:104D0000002AFAD170477047002001E001C1121F4C
:104D1000002AFBD17047000070B5040005D0164E84
:104D20003068844209D1002070BD502080F3118882
:104D3000BFF34F8FBFF36F8FFEE700F0BBFD6569D8
:104D400000F0D8FD7068854202D0B068854201D17C
:104D5000022070BD0948854204D1A06A0028F7D11D
:104D6000032070BD05481438854202D00DB10120E2
:104D700070BD042070BD00001C000020A41A00209B
:104D8000FCF7A8FBFFF7CCFBFDF7F0FDFDF772FE8B
:104D9000FDF70AFFFDF73CFFFDF756FFFDF780FD2D
:104DA000FDF7D0FE0648FDF785F80648FDF782F8C6
:104DB00000F032F8FDF79AFD00F04AF8FEE7000037
:104DC0004C1400209414002070B5054600244FF4C4
:104DD0007A7603E0304600F0F3FC641CAC42F9DB69
:104DE00070BD000010B5EFF3058149B9EFF31081F4
:104DF00031B908490968022905D1EFF3118111B1D0
:104E00006FF0050403E0002408B100F027FE2046FF
:104E100010BD00006C000020EFF3058058B9EFF3DF
:104E2000108040B909490868022801D030B109E072
:104E3000EFF3118030B16FF005007047012008607A
:104E4000002070474FF0FF30704700006C000020DA
:104E500010B5EFF3058060B9EFF3108048B90B4946
:104E60000868022802D0012806D00BE0EFF3118079
:104E700040B16FF0050010BD0220086000F016FF81
:104E8000002010BD4FF0FF3010BD00006C0000206E
:104E9000F0B585B04FEA01034FF00004EFF3058150
:104EA0000394A1BBEFF3108189BB21490968022952
:104EB00002D1EFF3118151BB48B3802618218DF840
:104EC000104004AD42B3176807B13D4697691FB162
:104ED00039467F1E382F02D21779FF0702D00020F3
:104EE00005B0F0BD576907B1BE08D2F808C0BCF1E3
:104EF000000F0DD0D4685C2C18D312693AB137B1C9
:104F00008DE806103246294601F079FA03900DE04B
:104F1000D7685FB912694AB903AACDE90012B2B2E3
:104F2000294601F03FFA012800D003940398D7E7FF
:104F30006C0000202DE9F041134C0F4605466669D0
:104F40002068001D00F058FC681C07D137B12168AB
:104F5000BDE8F0410D48091D00F09FBC20683544B4
:104F6000B5424560216805D2A068BDE8F041091D41
:104F700000F07BBC6068091D00F077FC206B854267
:104F800000D22563BDE8F0811C000020A41A002097
:104F90002DE9F041054600F08DFC2D4C2069401CA8
:104FA000206120682B4F10B1E06930B32BE0256001
:104FB0002069012827D1002606EB860007EB800038
:104FC00000F045FC761C382EF6D3234800F03FFC59
:104FD0002148143000F03BFC1F48283000F037FC1B
:104FE0001D483C3000F033FC1B48503000F02FFCD3
:104FF000194860601430A06005E02068E96AC06A62
:10500000884200D82560E06A401CE0626864E86A73
:10501000A169884200D9A06100EB800007EB800005
:10502000291D00F03AFC00F065FCE06900280CD076
:105030002068E96AC06A884207D208494FF0805068
:105040000860BFF34F8FBFF36F8FBDE8F0810000A2
:105050001C000020F4150020541A002004ED00E08C
:1050600038B500F027FC104CA068C8B90F4800F014
:10507000EEFB0E48143000F0EAFB0C4820601430C0
:1050800060600A4B00202833009003F15002102189
:105090000A2000F02BFFA06010B105A100F0A8FCD1
:1050A000BDE8384000F026BC58000020B81A0020A7
:1050B000546D72510000000030B4026C0B46002A9F
:1050C0000BD0C1681144C1604468A14201D301689A
:1050D000C16030BC1846FBF785B830BC70472DE97D
:1050E000F041856B174604460026026C82B1C7B1B9
:1050F000E068FBF777F8E168206C091AE160226844
:10510000914202D26168081AE060022F16D017E0BF
:105110002068A8B9606801F015FA064600206060B2
:105120000EE0A068FBF75EF8216CA0680844A06060
:105130006168884204D32068A06001E005B16D1E5B
:105140006D1CA5633046BDE8F08110B5044690F8AB
:10515000590058B101280CD002280FD0502080F3FC
:105160001188BFF34F8FBFF36F8FFEE7206B00F006
:10517000D5FB2046BDE8104000F0D0BB10BD0000BC
:1051800010484FF4A051420706D0C01D0D4920F031
:105190000700411AC1F5A0510B4A00230144C2E99E
:1051A00000030839103A21F0070111604B600B60D1
:1051B0000B1AC0E9001393604FF000405360D060B9
:1051C000704700008822002080000020154E164CF9
:1051D000A6F29C474FF08058DFF8509012E000BFD5
:1051E00000F068FBF068C568281D00F005FB206929
:1051F000401E2061E068401EE06000F07BFB284616
:10520000FFF7A3FFE0680028EAD13868012805D934
:10521000C9F80080BFF34F8FBFF36F8F00F016FB0C
:10522000F0E70000901A00201C00002004ED00E0D0
:1052300070B51D46049C51B1C4F80020C4E90F01AB
:105240000121204600F086FE84F84C5070BD246099
:10525000F4E72DE9F0470E46DDE90984174682465A
:1052600091009946089DA522206BFAF7CDFF6FF0BB
:105270000301206B01EB8701084420F00707780742
:1052800007D0502080F31188BFF34F8FBFF36F8F8B
:10529000FEE72218315C82F83410315C11B1401CF9
:1052A0001028F6D3002684F84360382D00D3372524
:1052B000E562C4E91356201D00F0D4FA04F1180089
:1052C00000F0D0FA2461C5F138006462A06166651F
:1052D00084F858604A465146384600F05FFA20602C
:1052E000B8F1000F01D0C8F80040BDE8F087000019
:1052F00030B5114900E011460A688242FBD34B6881
:105300005C18844203D140681844486008464368EA
:105310001C18944209D1084C103C2468A24209D0C0
:1053200052681A4442600A6812680260814200D0E2
:10533000086030BD0460F9E78000002070B50024EB
:1053400041600B4D0061914206D8D11A82699142A9
:1053500006D2011D686807E09A4203D2994201D340
:10536000012403E0011D286800F07FFA204670BD8B
:105370005800002010B5044600F09CFAA06B28B13C
:105380005FF0000400F0B6FA204610BD0124F9E7F2
:1053900030B589B0304D55E00498002806DADDE9D3
:1053A0000601059A9047049800284BDB069C60692B
:1053B00010B1201D00F020FA02A800F0B9F8024652
:1053C00004980A283ED2DFE800F00505053D26379F
:1053D00005053D260598A169034601442046FFF7CF
:1053E000ADFF00B3616A20468847E069012829D1F2
:1053F000002000900598A169002342181946204614
:1054000001F0AAF978B9502080F31188BFF34F8FCB
:10541000BFF36F8FFEE70598A06128B1811813468E
:105420002046FFF78BFF0DE0502080F31188BFF37B
:105430004F8FBFF36F8FFEE794F82C0010B9204612
:1054400000F06CFA002204A9A86800F0D5FE00283C
:10545000A2D109B030BD0000580000202DE9FC4168
:105460000F46054600F0B4FC01A800F061F80446C0
:10547000019818B101F0DEF8BDE8FC81224EAFB111
:1054800070680068A8B30027291B3A46B06800F08E
:10549000C3FA01F0CFF80028EED11C494FF080503C
:1054A0000860BFF34F8FBFF36F8FE5E7A542EBD8DE
:1054B00001F0C0F830682746C068C468201D00F0BD
:1054C0009BF9E069012810D1A0692B4641193A46A1
:1054D0002046FFF733FF40B100200346014600900D
:1054E0002A46204601F038F920B1616A20468847F3
:1054F000C2E707E0502080F31188BFF34F8FBFF35E
:105500006F8FFEE70127BFE75800002004ED00E0A1
:1055100006484168096829B14168C968C96849688D
:10552000016370474FF0FF31FAE700001C000020D4
:1055300070B5054600F09CFF064E04463069844273
:1055400003D200F009F8012000E000202860204686
:10555000346170BD58000020F8B5194D1FE0C068D7
:10556000C4680668201D00F047F9616A2046884734
:10557000E069012813D1A0693044B04206D9246102
:105580006060211D286800F070F908E000200346E3
:10559000014600903246204601F0DEF838B1286816
:1055A00001680029DBD16968C5E90010F8BD502009
:1055B00080F31188BFF34F8FBFF36F8FFEE70000BA
:1055C00058000020002101E0401C491C0278A52A57
:1055D000FAD0C1F38F00704708484068401C4FF074
:1055E000500080F3118804D0BFF34F8FBFF36F8F4B
:1055F000FEE7BFF34F8FBFF36F8FFEE788000020F9
:10560000002150B10A4B42699A420FD1806AA3F13E
:10561000280290420AD040B108E0502080F311885F
:10562000BFF34F8FBFF36F8FFEE70121084670472E
:10563000A41A0020074C2068016841B1C06800210D
:10564000D0F80000FFF70AFFFFF7A2FEF3E7012101
:105650000020F7E7580000202DE9F041044600F053
:1056600029F994F9455004F1240609E0606A48B12B
:10567000304600F0A7FF08B100F0A0FA6D1E6DB231
:10568000002DF3DC4FF0FF3684F8456000F032F96E
:1056900000F010F994F9445004F1100709E0206972
:1056A00048B1384600F08EFF08B100F087FA6D1E51
:1056B0006DB2002DF3DC84F84460BDE8F04100F0E9
:1056C00019B900002DE9F0410546002700F080FBE4
:1056D000314E306808B9FFF753FDF06805424BD1F1
:1056E000C5B3083568070ED005F00700C0F1080003
:1056F0000544680707D0502080F31188BFF34F8F0F
:10570000BFF36F8FFEE72DB37068854234D822480F
:10571000103001460C6801E020460C466168A94241
:1057200002D221680029F7D131688C4224D0076861
:105730002168016060680837411B10290FD9601982
:10574000420708D0502080F31188BFF34F8FBFF37A
:105750006F8FFEE710E041606560FFF7C9FD61688B
:105760007068401A7060B268904200D2B060F06811
:1057700001430020C4E9000100F05CFF780707D076
:10578000502080F31188BFF34F8FBFF36F8FFEE778
:105790003846BDE8F08100007000002010B5031FFE
:1057A0004FF080741C601B1F21F001011960191F4C
:1057B000024B0B60143940380A6010BDD9550008FF
:1057C00030B50C4A00211368DC6A4FF47A726043EA
:1057D000B0FBF2F55A6A586A9042FCD002D9A0EBAD
:1057E000020202E0A4EB0202024411440246A94272
:1057F000F1D330BD6C150020D0E9013201699A6007
:10580000D0E901235A604A68824201D182684A6025
:10581000002202610868401E0860086870470000A6
:10582000034B036003F15C00086080201060704748
:10583000D01B0020044B036003F15C0008604FF4B0
:1058400080701060704700002C1E0020704700F12F
:1058500008014FF0FF32C0E90112C160016100216F
:105860000160704700210161704730B50B685A1C18
:1058700002D000F1080202E0026904E02246546806
:1058800025689D42FAD953684B6099608A605160DF
:1058900008610168491C016030BD42684A60936834
:1058A0008B6093685960916008610168491C0160D0
:1058B00070470000502080F31188BFF34F8FBFF373
:1058C0006F8F0A494868401C486001280CD108487D
:1058D000006810F0FF0F07D0502080F31188BFF34D
:1058E0004F8FBFF36F8FFEE77047000088000020E6
:1058F00004ED00E00849486828B1401E486001D125
:1059000080F311887047502080F31188BFF34F8FC8
:10591000BFF36F8FFEE700008800002070B50028FD
:1059200027D0144DA0F108046168E868014207D14E
:10593000502080F31188BFF34F8FBFF36F8FFEE7C6
:1059400022683AB1502080F31188BFF34F8FBFF324
:105950006F8FFEE78143616000F03AFA6068696822
:10596000084468602046FFF7C3FCBDE8704000F0C3
:1059700061BE70BD700000204FF0E0200021016189
:10598000816105494FF47A720968B1FBF2F1491E51
:1059900041610721016170471800002010B5FAF736
:1059A000F9FB114910280ED300F1E02090F8F00324
:1059B0000A78904207D2502080F31188BFF34F8FAE
:1059C000BFF36F8FFEE709480068896800F4E06064
:1059D000884207D9502080F31188BFF34F8FBFF35F
:1059E0006F8FFEE710BD0000880000200CED00E086
:1059F00010B5084B002200BF53F832401CB1521CB6
:105A0000082AF9D310BD43F8321003EBC2014860F5
:105A100010BD0000B415002070B515460E460446B2
:105A2000FFF748FF94F944100020491C01D184F885
:105A3000440094F94510491C01D184F84500FFF752
:105A400059FFA06B28B92A46314604F1240000F022
:105A5000D3F82046BDE87040FFF7FEBD10B5020048
:105A600014D00F48806B38B1502080F31188BFF3F9
:105A70004F8FBFF36F8FFEE700F0AAF900211046A9
:105A8000FFF758FA00F0D6FD002807D105494FF07E
:105A900080500860BFF34F8FBFF36F8F10BD0000C1
:105AA0001C00002004ED00E070B50546FFF702FF82
:105AB0001E4C05B92568281DFFF79EFEA86A18B17F
:105AC00005F11800FFF798FEE06A401CE0622068CC
:105AD000854207D1291D1648FFF7DFFEE068401C0C
